{"abi":[{"type":"constructor","inputs":[{"name":"_verifier","type":"address","internalType":"address"}],"stateMutability":"nonpayable"},{"type":"function","name":"castVote","inputs":[{"name":"proofA","type":"uint256[2]","internalType":"uint256[2]"},{"name":"proofB","type":"uint256[2][2]","internalType":"uint256[2][2]"},{"name":"proofC","type":"uint256[2]","internalType":"uint256[2]"},{"name":"nullifier","type":"uint256","internalType":"uint256"},{"name":"commitment","type":"uint256","internalType":"uint256"},{"name":"voteOption","type":"uint256","internalType":"uint256"},{"name":"proposalId","type":"uint256","internalType":"uint256"}],"outputs":[],"stateMutability":"nonpayable"},{"type":"function","name":"commitments","inputs":[{"name":"","type":"uint256","internalType":"uint256"}],"outputs":[{"name":"","type":"bool","internalType":"bool"}],"stateMutability":"view"},{"type":"function","name":"createProposal","inputs":[{"name":"proposalId","type":"uint256","internalType":"uint256"},{"name":"deadline","type":"uint256","internalType":"uint256"},{"name":"numOptions","type":"uint256","internalType":"uint256"}],"outputs":[],"stateMutability":"nonpayable"},{"type":"function","name":"getResults","inputs":[{"name":"proposalId","type":"uint256","internalType":"uint256"}],"outputs":[{"name":"","type":"uint256[]","internalType":"uint256[]"}],"stateMutability":"view"},{"type":"function","name":"nullifierUsed","inputs":[{"name":"","type":"uint256","internalType":"uint256"}],"outputs":[{"name":"","type":"bool","internalType":"bool"}],"stateMutability":"view"},{"type":"function","name":"owner","inputs":[],"outputs":[{"name":"","type":"address","internalType":"address"}],"stateMutability":"view"},{"type":"function","name":"proposals","inputs":[{"name":"","type":"uint256","internalType":"uint256"}],"outputs":[{"name":"deadline","type":"uint256","internalType":"uint256"},{"name":"numOptions","type":"uint256","internalType":"uint256"},{"name":"active","type":"bool","internalType":"bool"}],"stateMutability":"view"},{"type":"function","name":"registerCommitment","inputs":[{"name":"commitment","type":"uint256","internalType":"uint256"}],"outputs":[],"stateMutability":"nonpayable"},{"type":"function","name":"tally","inputs":[{"name":"","type":"uint256","internalType":"uint256"},{"name":"","type":"uint256","internalType":"uint256"}],"outputs":[{"name":"","type":"uint256","internalType":"uint256"}],"stateMutability":"view"},{"type":"function","name":"verifier","inputs":[],"outputs":[{"name":"","type":"address","internalType":"contract IVerifier"}],"stateMutability":"view"},{"type":"event","name":"ProposalCreated","inputs":[{"name":"proposalId","type":"uint256","indexed":true,"internalType":"uint256"},{"name":"deadline","type":"uint256","indexed":false,"internalType":"uint256"},{"name":"numOptions","type":"uint256","indexed":false,"internalType":"uint256"}],"anonymous":false},{"type":"event","name":"VoteCast","inputs":[{"name":"nullifier","type":"uint256","indexed":true,"internalType":"uint256"},{"name":"proposalId","type":"uint256","indexed":true,"internalType":"uint256"},{"name":"voteOption","type":"uint256","indexed":false,"internalType":"uint256"}],"anonymous":false},{"type":"event","name":"VoterRegistered","inputs":[{"name":"commitment","type":"uint256","indexed":true,"internalType":"uint256"}],"anonymous":false},{"type":"error","name":"AlreadyRegistered","inputs":[]},{"type":"error","name":"InvalidOption","inputs":[]},{"type":"error","name":"InvalidProof","inputs":[]},{"type":"error","name":"NotRegistered","inputs":[]},{"type":"error","name":"NullifierAlreadyUsed","inputs":[]},{"type":"error","name":"ProposalNotActive","inputs":[]},{"type":"error","name":"Unauthorized","inputs":[]},{"type":"error","name":"VotingEnded","inputs":[]},{"type":"error","name":"VotingNotEnded","inputs":[]}],"bytecode":{"object":"0x60a060405234801562000010575f80fd5b50604051620012ce380380620012ce833981810160405281019062000036919062000115565b8073ffffffffffffffffffffffffffffffffffffffff1660808173ffffffffffffffffffffffffffffffffffffffff1681525050335f806101000a81548173ffffffffffffffffffffffffffffffffffffffff021916908373ffffffffffffffffffffffffffffffffffffffff1602179055505062000145565b5f80fd5b5f73ffffffffffffffffffffffffffffffffffffffff82169050919050565b5f620000df82620000b4565b9050919050565b620000f181620000d3565b8114620000fc575f80fd5b50565b5f815190506200010f81620000e6565b92915050565b5f602082840312156200012d576200012c620000b0565b5b5f6200013c84828501620000ff565b91505092915050565b608051611169620001655f395f8181610256015261044201526111695ff3fe608060405234801561000f575f80fd5b506004361061009c575f3560e01c806379f95ee91161006457806379f95ee91461015857806381a60c0d146101885780638da5cb5b146101b857806397c3f4e7146101d6578063eaaca8f5146102065761009c565b8063013cf08b146100a05780632b7ac3f3146100d257806349ce8997146100f05780635ef166e814610120578063722c51761461013c575b5f80fd5b6100ba60048036038101906100b591906109a0565b610222565b6040516100c9939291906109f4565b60405180910390f35b6100da610254565b6040516100e79190610aa3565b60405180910390f35b61010a600480360381019061010591906109a0565b610278565b6040516101179190610abc565b60405180910390f35b61013a60048036038101906101359190610b1b565b610295565b005b61015660048036038101906101519190610bbd565b6105e3565b005b610172600480360381019061016d91906109a0565b61078e565b60405161017f9190610abc565b60405180910390f35b6101a2600480360381019061019d91906109a0565b6107ab565b6040516101af9190610cc4565b60405180910390f35b6101c0610879565b6040516101cd9190610d04565b60405180910390f35b6101f060048036038101906101eb9190610d1d565b61089c565b6040516101fd9190610d5b565b60405180910390f35b610220600480360381019061021b91906109a0565b6108bc565b005b6004602052805f5260405f205f91509050805f015490806001015490806002015f9054906101000a900460ff16905083565b7f000000000000000000000000000000000000000000000000000000000000000081565b6001602052805f5260405f205f915054906101000a900460ff1681565b5f60045f8381526020019081526020015f206040518060600160405290815f820154815260200160018201548152602001600282015f9054906101000a900460ff1615151515815250509050806040015161031c576040517f7becc13f00000000000000000000000000000000000000000000000000000000815260040160405180910390fd5b805f0151421115610359576040517f7a19ed0500000000000000000000000000000000000000000000000000000000815260040160405180910390fd5b60025f8681526020019081526020015f205f9054906101000a900460ff16156103ae576040517fcad2ae0200000000000000000000000000000000000000000000000000000000815260040160405180910390fd5b60015f8581526020019081526020015f205f9054906101000a900460ff16610402576040517faba4733900000000000000000000000000000000000000000000000000000000815260040160405180910390fd5b8060200151831061043f576040517f2a71953100000000000000000000000000000000000000000000000000000000815260040160405180910390fd5b5f7f000000000000000000000000000000000000000000000000000000000000000073ffffffffffffffffffffffffffffffffffffffff166334baeab98a8a8a6040518060a001604052808b81526020018c81526020018981526020018a815260200188602001518152506040518563ffffffff1660e01b81526004016104c99493929190610ec4565b602060405180830381865afa1580156104e4573d5f803e3d5ffd5b505050506040513d601f19601f820116820180604052508101906105089190610f33565b905080610541576040517f09bde33900000000000000000000000000000000000000000000000000000000815260040160405180910390fd5b600160025f8881526020019081526020015f205f6101000a81548160ff02191690831515021790555060035f8481526020019081526020015f205f8581526020019081526020015f205f81548092919061059a90610f8b565b919050555082867f24930ecca7f60d4736cd965cb5522694ea4b32308405d3f88fea2f59eff63caa866040516105d09190610d5b565b60405180910390a3505050505050505050565b5f8054906101000a900473ffffffffffffffffffffffffffffffffffffffff1673ffffffffffffffffffffffffffffffffffffffff163373ffffffffffffffffffffffffffffffffffffffff1614610667576040517f82b4290000000000000000000000000000000000000000000000000000000000815260040160405180910390fd5b4282116106a9576040517f08c379a00000000000000000000000000000000000000000000000000000000081526004016106a09061102c565b60405180910390fd5b600181116106ec576040517f08c379a00000000000000000000000000000000000000000000000000000000081526004016106e390611094565b60405180910390fd5b60405180606001604052808381526020018281526020016001151581525060045f8581526020019081526020015f205f820151815f0155602082015181600101556040820151816002015f6101000a81548160ff021916908315150217905550905050827fa6a21b90631faacde52b977eb6e15e5707522fbbba8eddef55ed173ffde48efa83836040516107819291906110b2565b60405180910390a2505050565b6002602052805f5260405f205f915054906101000a900460ff1681565b60605f60045f8481526020019081526020015f206001015490505f8167ffffffffffffffff8111156107e0576107df6110d9565b5b60405190808252806020026020018201604052801561080e5781602001602082028036833780820191505090505b5090505f5b8281101561086e5760035f8681526020019081526020015f205f8281526020019081526020015f205482828151811061084f5761084e611106565b5b602002602001018181525050808061086690610f8b565b915050610813565b508092505050919050565b5f8054906101000a900473ffffffffffffffffffffffffffffffffffffffff1681565b6003602052815f5260405f20602052805f5260405f205f91509150505481565b60015f8281526020019081526020015f205f9054906101000a900460ff1615610911576040517f3a81d6fc00000000000000000000000000000000000000000000000000000000815260040160405180910390fd5b6001805f8381526020019081526020015f205f6101000a81548160ff021916908315150217905550807f640cfad995238c39f105b2884a2e9d3b1482d753cdcc97f2e7db4192e89121a860405160405180910390a250565b5f80fd5b5f819050919050565b61097f8161096d565b8114610989575f80fd5b50565b5f8135905061099a81610976565b92915050565b5f602082840312156109b5576109b4610969565b5b5f6109c28482850161098c565b91505092915050565b6109d48161096d565b82525050565b5f8115159050919050565b6109ee816109da565b82525050565b5f606082019050610a075f8301866109cb565b610a1460208301856109cb565b610a2160408301846109e5565b949350505050565b5f73ffffffffffffffffffffffffffffffffffffffff82169050919050565b5f819050919050565b5f610a6b610a66610a6184610a29565b610a48565b610a29565b9050919050565b5f610a7c82610a51565b9050919050565b5f610a8d82610a72565b9050919050565b610a9d81610a83565b82525050565b5f602082019050610ab65f830184610a94565b92915050565b5f602082019050610acf5f8301846109e5565b92915050565b5f80fd5b5f81905082602060020282011115610af457610af3610ad5565b5b92915050565b5f81905082604060020282011115610b1557610b14610ad5565b5b92915050565b5f805f805f805f610180888a031215610b3757610b36610969565b5b5f610b448a828b01610ad9565b9750506040610b558a828b01610afa565b96505060c0610b668a828b01610ad9565b955050610100610b788a828b0161098c565b945050610120610b8a8a828b0161098c565b935050610140610b9c8a828b0161098c565b925050610160610bae8a828b0161098c565b91505092959891949750929550565b5f805f60608486031215610bd457610bd3610969565b5b5f610be18682870161098c565b9350506020610bf28682870161098c565b9250506040610c038682870161098c565b9150509250925092565b5f81519050919050565b5f82825260208201905092915050565b5f819050602082019050919050565b610c3f8161096d565b82525050565b5f610c508383610c36565b60208301905092915050565b5f602082019050919050565b5f610c7282610c0d565b610c7c8185610c17565b9350610c8783610c27565b805f5b83811015610cb7578151610c9e8882610c45565b9750610ca983610c5c565b925050600181019050610c8a565b5085935050505092915050565b5f6020820190508181035f830152610cdc8184610c68565b905092915050565b5f610cee82610a29565b9050919050565b610cfe81610ce4565b82525050565b5f602082019050610d175f830184610cf5565b92915050565b5f8060408385031215610d3357610d32610969565b5b5f610d408582860161098c565b9250506020610d518582860161098c565b9150509250929050565b5f602082019050610d6e5f8301846109cb565b92915050565b82818337505050565b610d8960408383610d74565b5050565b5f60029050919050565b5f81905092915050565b5f819050919050565b610db660408383610d74565b5050565b5f610dc58383610daa565b60408301905092915050565b5f82905092915050565b5f604082019050919050565b610df081610d8d565b610dfa8184610d97565b9250610e0582610da1565b805f5b83811015610e3d57610e1a8284610dd1565b610e248782610dba565b9650610e2f83610ddb565b925050600181019050610e08565b505050505050565b5f60059050919050565b5f81905092915050565b5f819050919050565b5f602082019050919050565b610e7781610e45565b610e818184610e4f565b9250610e8c82610e59565b805f5b83811015610ebc578151610ea38782610c45565b9650610eae83610e62565b925050600181019050610e8f565b505050505050565b5f6101a082019050610ed85f830187610d7d565b610ee56040830186610de7565b610ef260c0830185610d7d565b610f00610100830184610e6e565b95945050505050565b610f12816109da565b8114610f1c575f80fd5b50565b5f81519050610f2d81610f09565b92915050565b5f60208284031215610f4857610f47610969565b5b5f610f5584828501610f1f565b91505092915050565b7f4e487b71000000000000000000000000000000000000000000000000000000005f52601160045260245ffd5b5f610f958261096d565b91507fffffffffffffffffffffffffffffffffffffffffffffffffffffffffffffffff8203610fc757610fc6610f5e565b5b600182019050919050565b5f82825260208201905092915050565b7f496e76616c696420646561646c696e65000000000000000000000000000000005f82015250565b5f611016601083610fd2565b915061102182610fe2565b602082019050919050565b5f6020820190508181035f8301526110438161100a565b9050919050565b7f496e76616c6964206f7074696f6e7300000000000000000000000000000000005f82015250565b5f61107e600f83610fd2565b91506110898261104a565b602082019050919050565b5f6020820190508181035f8301526110ab81611072565b9050919050565b5f6040820190506110c55f8301856109cb565b6110d260208301846109cb565b9392505050565b7f4e487b71000000000000000000000000000000000000000000000000000000005f52604160045260245ffd5b7f4e487b71000000000000000000000000000000000000000000000000000000005f52603260045260245ffdfea2646970667358221220e6fbd075212528637b43db636b4f8d1679cb5c6b6f74171c8c8720dde43dc64a64736f6c63430008140033","linkReferences":{}},"methodIdentifiers":{"castVote(uint256[2],uint256[2][2],uint256[2],uint256,uint256,uint256,uint256)":"5ef166e8","commitments(uint256)":"49ce8997","createProposal(uint256,uint256,uint256)":"722c5176","getResults(uint256)":"81a60c0d","nullifierUsed(uint256)":"79f95ee9","owner()":"8da5cb5b","proposals(uint256)":"013cf08b","registerCommitment(uint256)":"eaaca8f5","tally(uint256,uint256)":"97c3f4e7","verifier()":"2b7ac3f3"},"id":20}